{
  "_format": "hh-sol-artifact-1",
  "contractName": "VaultFactory",
  "sourceName": "contracts/VaultFactory.sol",
  "abi": [
    {
      "anonymous": false,
      "inputs": [
        {
          "indexed": false,
          "internalType": "address",
          "name": "creator",
          "type": "address"
        },
        {
          "indexed": false,
          "internalType": "address",
          "name": "vaultAddress",
          "type": "address"
        }
      ],
      "name": "VaultCreated",
      "type": "event"
    },
    {
      "inputs": [],
      "name": "createVault",
      "outputs": [
        {
          "internalType": "address",
          "name": "",
          "type": "address"
        }
      ],
      "stateMutability": "nonpayable",
      "type": "function"
    },
    {
      "inputs": [
        {
          "internalType": "uint256",
          "name": "",
          "type": "uint256"
        }
      ],
      "name": "vaults",
      "outputs": [
        {
          "internalType": "address",
          "name": "",
          "type": "address"
        }
      ],
      "stateMutability": "view",
      "type": "function"
    }
  ],
  "bytecode": "0x608060405234801561001057600080fd5b5061213c806100206000396000f3fe608060405234801561001057600080fd5b50600436106100365760003560e01c80635d12928b1461003b5780638c64ea4a14610059575b600080fd5b610043610089565b60405161005091906101f8565b60405180910390f35b610073600480360381019061006e919061024e565b61016b565b60405161008091906101f8565b60405180910390f35b60008033604051610099906101aa565b6100a391906101f8565b604051809103906000f0801580156100bf573d6000803e3d6000fd5b50905060008190506000819080600181540180825580915050600190039060005260206000200160009091909190916101000a81548173ffffffffffffffffffffffffffffffffffffffff021916908373ffffffffffffffffffffffffffffffffffffffff1602179055507f5d9c31ffa0fecffd7cf379989a3c7af252f0335e0d2a1320b55245912c781f53338260405161015b92919061027b565b60405180910390a1809250505090565b6000818154811061017b57600080fd5b906000526020600020016000915054906101000a900473ffffffffffffffffffffffffffffffffffffffff1681565b611e62806102a583390190565b600073ffffffffffffffffffffffffffffffffffffffff82169050919050565b60006101e2826101b7565b9050919050565b6101f2816101d7565b82525050565b600060208201905061020d60008301846101e9565b92915050565b600080fd5b6000819050919050565b61022b81610218565b811461023657600080fd5b50565b60008135905061024881610222565b92915050565b60006020828403121561026457610263610213565b5b600061027284828501610239565b91505092915050565b600060408201905061029060008301856101e9565b61029d60208301846101e9565b939250505056fe60806040523480156200001157600080fd5b5060405162001e6238038062001e628339818101604052810190620000379190620000ff565b60016000808373ffffffffffffffffffffffffffffffffffffffff1673ffffffffffffffffffffffffffffffffffffffff16815260200190815260200160002060006101000a81548160ff0219169083151502179055505062000131565b600080fd5b600073ffffffffffffffffffffffffffffffffffffffff82169050919050565b6000620000c7826200009a565b9050919050565b620000d981620000ba565b8114620000e557600080fd5b50565b600081519050620000f981620000ce565b92915050565b60006020828403121562000118576200011762000095565b5b60006200012884828501620000e8565b91505092915050565b611d2180620001416000396000f3fe608060405234801561001057600080fd5b50600436106100ea5760003560e01c8063ba95040a1161008c578063de9702a411610066578063de9702a4146102aa578063f2a40db8146102db578063fb26293a1461030b578063fc23524f14610327576100ea565b8063ba95040a1461022e578063d057d45e1461024a578063d14733ff1461027a576100ea565b8063857cdbb8116100c8578063857cdbb814610180578063a230c524146101b0578063a77dcfec146101e0578063b8d82849146101fe576100ea565b806308ae4b0c146100ef5780631af9cba014610120578063298daf5b14610150575b600080fd5b610109600480360381019061010491906113f4565b610345565b6040516101179291906114ba565b60405180910390f35b61013a600480360381019061013591906113f4565b610479565b604051610147919061150c565b60405180910390f35b61016a6004803603810190610165919061158c565b610499565b60405161017791906115f2565b60405180910390f35b61019a600480360381019061019591906113f4565b6105d5565b6040516101a7919061160d565b60405180910390f35b6101ca60048036038101906101c591906113f4565b6106f1565b6040516101d7919061150c565b60405180910390f35b6101e861074b565b6040516101f591906116ed565b60405180910390f35b6102186004803603810190610213919061173b565b61082b565b6040516102259190611826565b60405180910390f35b610248600480360381019061024391906113f4565b610914565b005b610264600480360381019061025f9190611848565b6109b6565b60405161027191906115f2565b60405180910390f35b610294600480360381019061028f91906118ef565b610cd1565b6040516102a1919061193e565b60405180910390f35b6102c460048036038101906102bf919061173b565b610d1f565b6040516102d29291906114ba565b60405180910390f35b6102f560048036038101906102f0919061173b565b610e63565b604051610302919061160d565b60405180910390f35b61032560048036038101906103209190611959565b610f15565b005b61032f611182565b60405161033c919061160d565b60405180910390f35b600160205280600052604060002060009150905080600001805461036890611a09565b80601f016020809104026020016040519081016040528092919081815260200182805461039490611a09565b80156103e15780601f106103b6576101008083540402835291602001916103e1565b820191906000526020600020905b8154815290600101906020018083116103c457829003601f168201915b5050505050908060010180546103f690611a09565b80601f016020809104026020016040519081016040528092919081815260200182805461042290611a09565b801561046f5780601f106104445761010080835404028352916020019161046f565b820191906000526020600020905b81548152906001019060200180831161045257829003601f168201915b5050505050905082565b60006020528060005260406000206000915054906101000a900460ff1681565b60006104a4336106f1565b6104e3576040517f08c379a00000000000000000000000000000000000000000000000000000000081526004016104da90611a87565b60405180910390fd5b6003604051806020016040528085858080601f016020809104026020016040519081016040528093929190818152602001838380828437600081840152601f19601f8201169050808301925050505050505081525090806001815401808255809150506001900390600052602060002001600090919091909150600082015181600001908051906020019061057992919061129c565b505050600060016003805490506105909190611ad6565b90507f7325fb14450d3e5eb288c620b4ff1d6b43a41b33b4a4f143ae88cd4c12f99ea333826040516105c3929190611b0a565b60405180910390a18091505092915050565b60606105e0336106f1565b61061f576040517f08c379a000000000000000000000000000000000000000000000000000000000815260040161061690611a87565b60405180910390fd5b600160008373ffffffffffffffffffffffffffffffffffffffff1673ffffffffffffffffffffffffffffffffffffffff168152602001908152602001600020600101805461066c90611a09565b80601f016020809104026020016040519081016040528092919081815260200182805461069890611a09565b80156106e55780601f106106ba576101008083540402835291602001916106e5565b820191906000526020600020905b8154815290600101906020018083116106c857829003601f168201915b50505050509050919050565b600080600160008473ffffffffffffffffffffffffffffffffffffffff1673ffffffffffffffffffffffffffffffffffffffff168152602001908152602001600020600101805461074190611a09565b9050119050919050565b6060610756336106f1565b610795576040517f08c379a000000000000000000000000000000000000000000000000000000000815260040161078c90611a87565b60405180910390fd5b600160003373ffffffffffffffffffffffffffffffffffffffff1673ffffffffffffffffffffffffffffffffffffffff16815260200190815260200160002060020180548060200260200160405190810160405280929190818152602001828054801561082157602002820191906000526020600020905b81548152602001906001019080831161080d575b5050505050905090565b6060610836336106f1565b610875576040517f08c379a000000000000000000000000000000000000000000000000000000000815260040161086c90611a87565b60405180910390fd5b6004600083815260200190815260200160002080548060200260200160405190810160405280929190818152602001828054801561090857602002820191906000526020600020905b8160009054906101000a900473ffffffffffffffffffffffffffffffffffffffff1673ffffffffffffffffffffffffffffffffffffffff16815260200190600101908083116108be575b50505050509050919050565b61091d336106f1565b61095c576040517f08c379a000000000000000000000000000000000000000000000000000000000815260040161095390611a87565b60405180910390fd5b60016000808373ffffffffffffffffffffffffffffffffffffffff1673ffffffffffffffffffffffffffffffffffffffff16815260200190815260200160002060006101000a81548160ff02191690831515021790555050565b60006109c1336106f1565b610a00576040517f08c379a00000000000000000000000000000000000000000000000000000000081526004016109f790611a87565b60405180910390fd5b610a09876106f1565b610a48576040517f08c379a0000000000000000000000000000000000000000000000000000000008152600401610a3f90611b7f565b60405180910390fd5b8560038054905011610a8f576040517f08c379a0000000000000000000000000000000000000000000000000000000008152600401610a8690611beb565b60405180910390fd5b6002604051806040016040528087878080601f016020809104026020016040519081016040528093929190818152602001838380828437600081840152601f19601f82011690508083019250505050505050815260200185858080601f016020809104026020016040519081016040528093929190818152602001838380828437600081840152601f19601f8201169050808301925050505050505081525090806001815401808255809150506001900390600052602060002090600202016000909190919091506000820151816000019080519060200190610b7392919061129c565b506020820151816001019080519060200190610b9092919061129c565b50505060006001600280549050610ba79190611ad6565b9050600160008973ffffffffffffffffffffffffffffffffffffffff1673ffffffffffffffffffffffffffffffffffffffff16815260200190815260200160002060020181908060018154018082558091505060019003906000526020600020016000909190919091505560046000888152602001908152602001600020889080600181540180825580915050600190039060005260206000200160009091909190916101000a81548173ffffffffffffffffffffffffffffffffffffffff021916908373ffffffffffffffffffffffffffffffffffffffff1602179055507fa6fd56a4380239132878ef2e33f2a5339924feadc25d51b82664b9330e87d1fd33898984604051610cbb9493929190611c0b565b60405180910390a1809150509695505050505050565b60046020528160005260406000208181548110610ced57600080fd5b906000526020600020016000915091509054906101000a900473ffffffffffffffffffffffffffffffffffffffff1681565b60028181548110610d2f57600080fd5b9060005260206000209060020201600091509050806000018054610d5290611a09565b80601f0160208091040260200160405190810160405280929190818152602001828054610d7e90611a09565b8015610dcb5780601f10610da057610100808354040283529160200191610dcb565b820191906000526020600020905b815481529060010190602001808311610dae57829003601f168201915b505050505090806001018054610de090611a09565b80601f0160208091040260200160405190810160405280929190818152602001828054610e0c90611a09565b8015610e595780601f10610e2e57610100808354040283529160200191610e59565b820191906000526020600020905b815481529060010190602001808311610e3c57829003601f168201915b5050505050905082565b60038181548110610e7357600080fd5b90600052602060002001600091509050806000018054610e9290611a09565b80601f0160208091040260200160405190810160405280929190818152602001828054610ebe90611a09565b8015610f0b5780601f10610ee057610100808354040283529160200191610f0b565b820191906000526020600020905b815481529060010190602001808311610eee57829003601f168201915b5050505050905081565b6000803373ffffffffffffffffffffffffffffffffffffffff1673ffffffffffffffffffffffffffffffffffffffff16815260200190815260200160002060009054906101000a900460ff16610fa0576040517f08c379a0000000000000000000000000000000000000000000000000000000008152600401610f9790611c9c565b60405180910390fd5b60008060003373ffffffffffffffffffffffffffffffffffffffff1673ffffffffffffffffffffffffffffffffffffffff16815260200190815260200160002060006101000a81548160ff021916908315150217905550604051806060016040528085858080601f016020809104026020016040519081016040528093929190818152602001838380828437600081840152601f19601f82011690508083019250505050505050815260200183838080601f016020809104026020016040519081016040528093929190818152602001838380828437600081840152601f19601f820116905080830192505050505050508152602001600067ffffffffffffffff8111156110b1576110b0611cbc565b5b6040519080825280602002602001820160405280156110df5781602001602082028036833780820191505090505b50815250600160003373ffffffffffffffffffffffffffffffffffffffff1673ffffffffffffffffffffffffffffffffffffffff168152602001908152602001600020600082015181600001908051906020019061113e92919061129c565b50602082015181600101908051906020019061115b92919061129c565b506040820151816002019080519060200190611178929190611322565b5090505050505050565b606061118d336106f1565b6111cc576040517f08c379a00000000000000000000000000000000000000000000000000000000081526004016111c390611a87565b60405180910390fd5b600160003373ffffffffffffffffffffffffffffffffffffffff1673ffffffffffffffffffffffffffffffffffffffff168152602001908152602001600020600001805461121990611a09565b80601f016020809104026020016040519081016040528092919081815260200182805461124590611a09565b80156112925780601f1061126757610100808354040283529160200191611292565b820191906000526020600020905b81548152906001019060200180831161127557829003601f168201915b5050505050905090565b8280546112a890611a09565b90600052602060002090601f0160209004810192826112ca5760008555611311565b82601f106112e357805160ff1916838001178555611311565b82800160010185558215611311579182015b828111156113105782518255916020019190600101906112f5565b5b50905061131e919061136f565b5090565b82805482825590600052602060002090810192821561135e579160200282015b8281111561135d578251825591602001919060010190611342565b5b50905061136b919061136f565b5090565b5b80821115611388576000816000905550600101611370565b5090565b600080fd5b600080fd5b600073ffffffffffffffffffffffffffffffffffffffff82169050919050565b60006113c182611396565b9050919050565b6113d1816113b6565b81146113dc57600080fd5b50565b6000813590506113ee816113c8565b92915050565b60006020828403121561140a5761140961138c565b5b6000611418848285016113df565b91505092915050565b600081519050919050565b600082825260208201905092915050565b60005b8381101561145b578082015181840152602081019050611440565b8381111561146a576000848401525b50505050565b6000601f19601f8301169050919050565b600061148c82611421565b611496818561142c565b93506114a681856020860161143d565b6114af81611470565b840191505092915050565b600060408201905081810360008301526114d48185611481565b905081810360208301526114e88184611481565b90509392505050565b60008115159050919050565b611506816114f1565b82525050565b600060208201905061152160008301846114fd565b92915050565b600080fd5b600080fd5b600080fd5b60008083601f84011261154c5761154b611527565b5b8235905067ffffffffffffffff8111156115695761156861152c565b5b60208301915083600182028301111561158557611584611531565b5b9250929050565b600080602083850312156115a3576115a261138c565b5b600083013567ffffffffffffffff8111156115c1576115c0611391565b5b6115cd85828601611536565b92509250509250929050565b6000819050919050565b6115ec816115d9565b82525050565b600060208201905061160760008301846115e3565b92915050565b600060208201905081810360008301526116278184611481565b905092915050565b600081519050919050565b600082825260208201905092915050565b6000819050602082019050919050565b611664816115d9565b82525050565b6000611676838361165b565b60208301905092915050565b6000602082019050919050565b600061169a8261162f565b6116a4818561163a565b93506116af8361164b565b8060005b838110156116e05781516116c7888261166a565b97506116d283611682565b9250506001810190506116b3565b5085935050505092915050565b60006020820190508181036000830152611707818461168f565b905092915050565b611718816115d9565b811461172357600080fd5b50565b6000813590506117358161170f565b92915050565b6000602082840312156117515761175061138c565b5b600061175f84828501611726565b91505092915050565b600081519050919050565b600082825260208201905092915050565b6000819050602082019050919050565b61179d816113b6565b82525050565b60006117af8383611794565b60208301905092915050565b6000602082019050919050565b60006117d382611768565b6117dd8185611773565b93506117e883611784565b8060005b8381101561181957815161180088826117a3565b975061180b836117bb565b9250506001810190506117ec565b5085935050505092915050565b6000602082019050818103600083015261184081846117c8565b905092915050565b600080600080600080608087890312156118655761186461138c565b5b600061187389828a016113df565b965050602061188489828a01611726565b955050604087013567ffffffffffffffff8111156118a5576118a4611391565b5b6118b189828a01611536565b9450945050606087013567ffffffffffffffff8111156118d4576118d3611391565b5b6118e089828a01611536565b92509250509295509295509295565b600080604083850312156119065761190561138c565b5b600061191485828601611726565b925050602061192585828601611726565b9150509250929050565b611938816113b6565b82525050565b6000602082019050611953600083018461192f565b92915050565b600080600080604085870312156119735761197261138c565b5b600085013567ffffffffffffffff81111561199157611990611391565b5b61199d87828801611536565b9450945050602085013567ffffffffffffffff8111156119c0576119bf611391565b5b6119cc87828801611536565b925092505092959194509250565b7f4e487b7100000000000000000000000000000000000000000000000000000000600052602260045260246000fd5b60006002820490506001821680611a2157607f821691505b60208210811415611a3557611a346119da565b5b50919050565b7f73656e646572206e6f742061206d656d62657200000000000000000000000000600082015250565b6000611a7160138361142c565b9150611a7c82611a3b565b602082019050919050565b60006020820190508181036000830152611aa081611a64565b9050919050565b7f4e487b7100000000000000000000000000000000000000000000000000000000600052601160045260246000fd5b6000611ae1826115d9565b9150611aec836115d9565b925082821015611aff57611afe611aa7565b5b828203905092915050565b6000604082019050611b1f600083018561192f565b611b2c60208301846115e3565b9392505050565b7f726563697069656e74206e6f742061206d656d62657200000000000000000000600082015250565b6000611b6960168361142c565b9150611b7482611b33565b602082019050919050565b60006020820190508181036000830152611b9881611b5c565b9050919050565b7f6163636f756e7420646f6573206e6f7420657869737400000000000000000000600082015250565b6000611bd560168361142c565b9150611be082611b9f565b602082019050919050565b60006020820190508181036000830152611c0481611bc8565b9050919050565b6000608082019050611c20600083018761192f565b611c2d602083018661192f565b611c3a60408301856115e3565b611c4760608301846115e3565b95945050505050565b7f73656e646572206e6f7420612070656e64696e67206d656d6265720000000000600082015250565b6000611c86601b8361142c565b9150611c9182611c50565b602082019050919050565b60006020820190508181036000830152611cb581611c79565b9050919050565b7f4e487b7100000000000000000000000000000000000000000000000000000000600052604160045260246000fdfea26469706673582212202918aa7a25c05a83fab94d8d3c0494f3d6bc4cb3be4231aaed2f291fb90b0c6c64736f6c63430008090033a264697066735822122022c585f634572fcd55d8d38751597f594564e223bb6074d337de0c9031b4c91a64736f6c63430008090033",
  "linkReferences": {},
  "deployedLinkReferences": {}
}